{
  "abi": [
    {
      "type": "function",
      "name": "addressRegistry",
      "inputs": [
        {
          "name": "",
          "type": "address",
          "internalType": "address"
        }
      ],
      "outputs": [
        {
          "name": "",
          "type": "uint256",
          "internalType": "uint256"
        }
      ],
      "stateMutability": "view"
    },
    {
      "type": "function",
      "name": "getMyAddressRegistry",
      "inputs": [],
      "outputs": [
        {
          "name": "",
          "type": "uint256",
          "internalType": "uint256"
        }
      ],
      "stateMutability": "view"
    },
    {
      "type": "function",
      "name": "getRegisteredStarknetAddress",
      "inputs": [
        {
          "name": "l1Address",
          "type": "address",
          "internalType": "address"
        }
      ],
      "outputs": [
        {
          "name": "",
          "type": "uint256",
          "internalType": "uint256"
        }
      ],
      "stateMutability": "view"
    },
    {
      "type": "function",
      "name": "register",
      "inputs": [
        {
          "name": "starknetAddress",
          "type": "uint256",
          "internalType": "uint256"
        }
      ],
      "outputs": [],
      "stateMutability": "payable"
    },
    {
      "type": "event",
      "name": "AddressRegistration",
      "inputs": [
        {
          "name": "l1Address",
          "type": "address",
          "indexed": false,
          "internalType": "address"
        },
        {
          "name": "starknetAddress",
          "type": "uint256",
          "indexed": false,
          "internalType": "uint256"
        }
      ],
      "anonymous": false
    }
  ],
  "bytecode": {
    "object": "0x608060405234801561001057600080fd5b506101bb806100206000396000f3fe60806040526004361061003f5760003560e01c80634174b9de14610044578063cef30c211461008c578063dd963440146100ae578063f207564e146100db575b600080fd5b34801561005057600080fd5b5061007a61005f36600461013c565b6001600160a01b031660009081526020819052604090205490565b60405190815260200160405180910390f35b34801561009857600080fd5b503360009081526020819052604090205461007a565b3480156100ba57600080fd5b5061007a6100c936600461013c565b60006020819052908152604090205481565b6100ee6100e936600461016c565b6100f0565b005b3360008181526020818152604091829020849055815192835282018390527f17e7d9394402e309c7ee7ba26b6d940a8b631911254187dd87a5380bc08d5a7c910160405180910390a150565b60006020828403121561014e57600080fd5b81356001600160a01b038116811461016557600080fd5b9392505050565b60006020828403121561017e57600080fd5b503591905056fea2646970667358221220c8b3b94b324e0b62b78a9471a53c631276d162492c325d3e0125c06fd87560c264736f6c63430008170033",
    "linkReferences": {}
  },
  "methodIdentifiers": {
    "addressRegistry(address)": "dd963440",
    "getMyAddressRegistry()": "cef30c21",
    "getRegisteredStarknetAddress(address)": "4174b9de",
    "register(uint256)": "f207564e"
  },
  "id": 25
}